:100000000C9495000C94BD000C94BD000C94BD00A4
:100010000C94BD000C94BD000C94BD000C94BD006C
:100020000C94BD000C94BD000C94BD000C94BD005C
:100030000C94BD000C94BF0E0C94BD000C94BD003C
:100040000C94BD000C94BD000C94E6190C94BD00FA
:100050000C947C1C0C94BD000C94BD000C94BD0051
:100060000C94BD000C94BD000C94BD000C94BD001C
:100070000C94BA1C0C94BD000C94BD0000212427E4
:100080002A002225282B0020232629020202020210
:10009000020202040404040404040403030303032B
:1000A0000303030101010101010101010204081020
:1000B0002040800102040810204080010204081042
:1000C000204080804020100804020100000001024E
:1000D000000000000000000403070600000000000C
:1000E0000000000000000000000000494E46494E9C
:1000F0004954594E414ECDCCCC3D0AD7233C17B77D
:10010000D13877CC2B329595E6241FB14F0A0000E9
:1001100020410000C84200401C4620BCBE4CCA1B07
:100120000E5AAEC59D74910ACA1A11241FBECFEF94
:10013000D0E1DEBFCDBF11E0A0E0B1E0EAE8F0E43D
:1001400002C005900D92AE37B107D9F716E0AEE7C1
:10015000B1E001C01D92A03CB107E1F711E0CAE295
:10016000D1E004C02297FE010E94FD1FC632D107D4
:10017000C9F70E945C180C9443200C940000A0E086
:10018000B0E0E5ECF0E00C941220EC015B016115AD
:10019000710519F0FB0191838083F9908F2D90E018
:1001A0000E940120892BC9F7FDE2FF1621F4F99086
:1001B000EE24E39405C02BE2F21609F4F990EE2444
:1001C0008E0101501040C8016BEE70E043E050E03A
:1001D0000E944803892B01F58E010E5F1F4FC80155
:1001E0006EEE70E045E050E00E944803892B19F460
:1001F0008E01095F1F4FA114B10419F0F50111839D
:100200000083E0FC04C070E090E080E814C070E07F
:1002100090E080E86FEF08C1C80163EF70E043E051
:1002200050E00E944803892B69F4A114B10429F419
:1002300070E090E080EC6FE7F7C02296F501D18383
:10024000C083F6CF8824992440E050E060E070E05D
:10025000EF2DE053EA30A0F5F2E0EF2A8E2D90E08A
:100260009C0128703070E2FE06C0232B79F50894BB
:10027000811C911C2BC0232B19F008948108910834
:10028000DB01CA0112E0880F991FAA1FBB1F1A9534
:10029000D1F7480F591F6A1F7B1F440F551F661F58
:1002A000771F4E0F511D611D711D483929E95207F5
:1002B00029E9620729E1720748F084E0E82A06C0CC
:1002C000EE3F31F4E3FC39C098E0E92AF990C0CF61
:1002D000E53311F0E53189F529912D3219F4E0E18A
:1002E000EE2A05C02B3219F081E090E003C029917D
:1002F00082E090E0E22FE053EA3018F0C81BD90BFF
:100300001CC020E030E0FCE020383F075CF4C9016D
:10031000880F991F880F991F280F391F220F331F2D
:100320002E0F311DE991E053EA3068F3E4FE03C07B
:10033000309521953F4F820E931ECE2CDD24E1FE99
:1003400007C0A114B10421F02197F501D183C08326
:10035000CB01BA010E94FA1D7B018C01F3E0CF2290
:10036000DD2423E0C216D10421F417FB109517F900
:10037000109557016801C801B70120E030E040E066
:1003800050E00E945D1D882309F44AC097FE0DC00D
:100390002AE0E22E21E0F22E909481949108939429
:1003A000C0E2D0E000E010E012C092E2E92E91E05D
:1003B000F92EF6CFF7012591359145915491C6015B
:1003C000B5010E94B01E5B016C018C1A9D0A8C164F
:1003D0009D0684F7D595C7950F5F1F4F0630110511
:1003E00029F08CEF9FEFE80EF91EF1CFC501D60181
:1003F0007C018D018C2D880F8D2D881F8F3F51F032
:10040000C601B50120E030E040E050E00E945D1DF3
:10041000882331F482E290E09093BF068093BE0679
:100420007E2D9F2D802F612F272F392F482F562F5C
:10043000B901CA01CDB7DEB7ECE00C942E202F92A3
:100440003F925F926F927F928F929F92AF92BF92F4
:10045000CF92DF92EF92FF920F931F93CF93DF9390
:10046000EC011B016A016115710519F0FB01918313
:100470008083C114D10449F0C6010297839728F004
:1004800020E030E040E050E0EFC0A9908A2D90E0FD
:100490000E940120892BC9F7FDE2AF1621F4A99033
:1004A0005524539405C08BE2A81609F4A99055244D
:1004B000C114D10421F0E0E1CE16D104B9F4F0E387
:1004C000AF1669F48881883711F0883541F4A98026
:1004D000229682E0582A20E1C22ED12C07C0C114F6
:1004E000D10421F4E0E3AE16E9F428C0F2E0CF161F
:1004F000D10491F088E0C816D10419F1EAE0CE16D3
:10050000D10499F0F0E1CF16D10409F5E12CF12CDA
:10051000012D98E0192F2AC0E12CF12C012D80E447
:10052000182F24C0BAE0CB2ED12CACECEA2EACECC8
:10053000FA2EACEC0A2FACE01A2F18C0F8E0CF2E40
:10054000D12CE12CF12C012DE0E11E2F0FC09601E2
:10055000442737FD4095542F60E070E080E090E83C
:100560000E94AA1FC901DA017C018D0120E030E060
:1005700040E050E060E03601882477FC8094982CBD
:1005800070EDB72EBA0C89E08B1570F48A2D81546A
:100590008A3118F499ECB92E06C08A2D81568A3119
:1005A00040F589EAB82EBA0C8B2D90E08C159D058C
:1005B00004F56F3FE1F0E216F30604071507B0F00B
:1005C000CA01B901A40193010E94781F9B01AC01EB
:1005D0002B0D311D411D511D2130E0E03E07E0E0B3
:1005E0004E07E0E85E0710F461E001C06FEFA990EC
:1005F000C7CF2114310471F0662329F02197F1014E
:10060000D183C08307C051FE19C02297F101D18365
:10061000C08314C067FF12C050FC05C02FEF3FEF2E
:100620004FEF5FE704C020E030E040E050E882E2B6
:1006300090E09093BF068093BE0616C050FE08C09F
:1006400050954095309521953F4F4F4F5F4F0CC0CF
:1006500057FF0AC082E290E09093BF068093BE06E7
:100660002FEF3FEF4FEF5FE7B901CA01DF91CF9165
:100670001F910F91FF90EF90DF90CF90BF90AF90C0
:100680009F908F907F906F905F903F902F900895F4
:10069000FB01DC014150504088F08D9181341CF009
:1006A0008B350CF4805E659161341CF06B350CF475
:1006B000605E861B611171F3990B0895881BFCCF56
:1006C0002F923F924F925F926F927F928F929F9262
:1006D000AF92BF92CF92DF92EF92FF920F931F9350
:1006E000DF93CF93CDB7DEB72E970FB6F894DEBF6A
:1006F0000FBECDBF9E878D877B018A01FB01608184
:10070000718182819381FA012081318142815381FB
:100710000E94B01ED62EC72EB82EA92EF7016481D6
:10072000758186819781F8012481358146815781C1
:100730000E94B01E962E872E782E692EF7016085B6
:10074000718582859385F8012085318542855385A1
:100750000E94B01E562E472E382E292EF701648592
:10076000758586859785F801248535854685578565
:100770000E94B01E69837A838B839C83F701608912
:10078000718982899389F801208931894289538945
:100790000E94B01E6D837E838F839887A60195018A
:1007A000652F742F832F922F20E030E040E050E03F
:1007B0000E94AC1E88236CF0A6019501652F742F52
:1007C000832F922F20E030E040E05FE30E94F91C8D
:1007D0000CC0A6019501652F742F832F922F20E066
:1007E00030E040E05FE30E94F81C0E94C91D698769
:1007F0007A878B879C87A4019301652F782D832F9F
:10080000962D20E030E040E050E00E94AC1E8823AE
:100810006CF0A4019301652F782D832F962D20E095
:1008200030E040E05FE30E94F91C0CC0A40193019A
:10083000652F782D832F962D20E030E040E05FE398
:100840000E94F81C0E94C91D3B014C01A2019101AC
:10085000652F742D832F922D20E030E040E050E092
:100860000E94AC1E88236CF0A2019101652F742DAB
:10087000832F922D20E030E040E05FE30E94F91CDE
:100880000CC0A2019101652F742D832F922D20E0C1
:1008900030E040E05FE30E94F81C0E94C91D7B012C
:1008A0008C0159814A813B812C81652F742F832FC4
:1008B000922F20E030E040E050E00E94AC1E882300
:1008C0007CF059814A813B812C81652F742F832FC5
:1008D000922F20E030E040E05FE30E94F91C0EC060
:1008E00059814A813B812C81652F742F832F922F50
:1008F00020E030E040E05FE30E94F81C0E94C91D48
:100900005B016C015D814E813F812885652F742FCD
:10091000832F922F20E030E040E050E00E94AC1E98
:1009200088237CF05D814E813F812885652F742F5F
:10093000832F922F20E030E040E05FE30E94F91C1B
:100940000EC05D814E813F812885652F742F832FD6
:10095000922F20E030E040E05FE30E94F81C0E940C
:10096000C91D29853A854B855C85ED85FE852083EB
:100970003183428353836482758286829782E086C4
:10098000F18602871387A486B586C686D786608BD4
:10099000718B828B938BCF012E960FB6F894DEBFAE
:1009A0000FBECDBFCF91DF911F910F91FF90EF90C0
:1009B000DF90CF90BF90AF909F908F907F906F907F
:1009C0005F904F903F902F900895882321F480915D
:1009D00081008B7F29C0813049F4809181008B7F19
:1009E0008093810080918100826015C0823049F43B
:1009F000809181008B7F8093810080918100826053
:100A000018C0833071F480918100846080938100EC
:100A1000809181008D7F80938100809181008E7F05
:100A20000DC080918100846080938100809181005D
:100A30008D7F80938100809181008160809381000F
:100A40000895E0E8F0E01082A1E8B0E01C92109276
:100A5000820010926F008C918F7E8C938C918860B5
:100A60008C9380818D7F808380818E7F8083808145
:100A70008F77808380818F7B808380818F7D80834F
:100A800080818F7E808384E00E94E5048FEF9FEF5A
:100A900090938900809388000895603020E0720769
:100AA00021E0820720E092070CF441C0693F2FEF5C
:100AB000720727E0820720E0920744F453E09595FF
:100AC0008795779567955A95D1F731C0613C2FEF9F
:100AD00072072FE3820720E0920744F446E09595E1
:100AE0008795779567954A95D1F721C061302FEFAB
:100AF00072072FEF820720E092073CF4672F782FD0
:100B0000892F992787FD9A9512C061302CEF7207C3
:100B10002FEF820723E092071CF06FEF7FEF07C0F3
:100B20002AE095958795779567952A95D1F7CB011A
:100B30000895603020E0720721E0820720E09207EC
:100B400014F480E00895693F2FEF720727E08207D1
:100B500020E0920714F481E00895613C2FEF7207C2
:100B60002FE3820720E0920714F482E008956130B9
:100B70002FEF72072FEF820720E0920714F084E036
:100B8000089583E00895EF92FF920F931F937B01E6
:100B90008C0164E0EE0CFF1C001F111F6A95D1F759
:100BA000C801B7010E944D05909389008093880089
:100BB000C801B7010E9499050E94E5041F910F9199
:100BC000FF90EF900895FC016623C9F08CE59FE843
:100BD000A2E5B0E482839383A483B583868397835D
:100BE000A087B18780E090E0A0EAB3E48287938792
:100BF000A487B58783E393E3A3E3B0E418C08AEC4A
:100C000091E2A7EAB2E482839383A483B5838683C7
:100C10009783A087B18780E090E0AEEFB5E482874C
:100C20009387A487B58780E79DE3AEE8B2E4868723
:100C30009787A08BB18B80E090E0A0E8BFE3828B28
:100C4000938BA48BB58B0895AF92BF92CF92DF9216
:100C5000EF92FF920F931F93DF93CF9300D0CDB706
:100C6000DEB77C016B018A015901BE016F5F7F4FC6
:100C70004AE050E00E941F0229813A812E193F0963
:100C8000121613065CF4F60171836083F80180810B
:100C900091818A299B299183808303C0F601118267
:100CA0001082C9010F900F90CF91DF911F910F918A
:100CB000FF90EF90DF90CF90BF90AF900895AF92EC
:100CC000BF92CF92DF92EF92FF920F931F93DF9329
:100CD000CF9300D0CDB7DEB77C018B016A015901FB
:100CE000BE016F5F7F4F0E94BF0029813A812E199C
:100CF0003F09121613066CF4F80160837183828336
:100D00009383F601808191818A299B299183808335
:100D100009C080E090E0A0E0B0E0F801808391831A
:100D2000A283B383C9010F900F90CF91DF911F91E0
:100D30000F91FF90EF90DF90CF90BF90AF9008950C
:100D40002F923F924F925F926F927F928F929F92DB
:100D5000AF92BF92CF92DF92EF92FF920F931F93C9
:100D6000DF93CF93CDB7DEB762970FB6F894DEBFAF
:100D70000FBECDBF8B015A01FC01119211926F0180
:100D80007C01A4E08A2E912C880E991EF6E26F2E2B
:100D9000712C680E791EE6E04E2E512C480E591E1D
:100DA0007AE0272E312C280E391E9C01225F3F4FFE
:100DB000388B2F87FC017296FE87ED879C01265E9B
:100DC0003F4F3C872B87FC017E96FA87E9879C0181
:100DD0002E5D3F4F38872F83FC01BA96FE83ED834B
:100DE0009C01225D3F4F3C832B83FC017696FA8366
:100DF000E98380E090E09A8B898BBDC0E989FA890C
:100E0000E00FF11F8081853409F4A2C0863409F413
:100E10007EC08734E1F0893409F463C08A3409F470
:100E20006BC08D34F1F0803591F1813509F485C0C6
:100E3000823509F477C0833501F1883591F1893520
:100E4000D1F18A3509F442C080E090E08DC08989F3
:100E50009A890196800F911FB601A70121E030E029
:100E600009C089899A890196800F911FB401A70151
:100E700022E030E00E94240677C089899A89019691
:100E8000800F911FB301A70120E034E06BC0898976
:100E90009A890196800F911FB201A70124E030E0EA
:100EA00061C089899A890196800F911FB101A701BC
:100EB00028E030E057C089899A890196800F911FF8
:100EC0006F857889A70120E130E04CC089899A8933
:100ED0000196800F911F6D857E85A70120E230E08D
:100EE00041C089899A890196800F911F6B857C8505
:100EF000A70120E430E036C089899A890196800FE5
:100F0000911F69857A85A70120E830E02BC0898987
:100F10009A890196800F911F6F817885A70120E043
:100F200032E020C089899A890196800F911F6D81D6
:100F30007E81A70120E030E115C089899A89019658
:100F4000800F911F6B817C81A70120E038E00AC0EF
:100F500089899A890196800F911F69817A81A701F9
:100F600020E030E20E945F06019629893A89280F25
:100F7000391F3A8B298B89899A898A159B050CF42C
:100F80003DCF62960FB6F894DEBF0FBECDBFCF91B6
:100F9000DF911F910F91FF90EF90DF90CF90BF9066
:100FA000AF909F908F907F906F905F904F903F9009
:100FB0002F9008951F93CF93DF93162F862F0E94B3
:100FC0006318EC01812F0E946318C80FD91F812F6D
:100FD0000E9463188C0F9D1F63E070E00E94971FB2
:100FE000CB01DF91CF911F910895CF93DF93FC0147
:100FF00061A10E94DA07A6E2B1E020E030E0F90149
:1010000031966D917C9111978617970774F5D901E8
:10101000AA0FBB1FAA0FBB1FAE5DBE4FCD91DC91C7
:10102000D901AA0FBB1FAA0FBB1FAC5DBE4F2D91EC
:101030003C9111978C1B9D0BEE0FFF1FEE0FFF1FB6
:10104000EC5DFE4F40815181421B530B6C1B7D0BAD
:10105000FC01E49FC001E59F900DF49F900D1124C9
:101060000E94971F620F731F10C02E5F1496E3310A
:10107000F10511F09F01C3CF243119F060E070E059
:1010800004C0609170017091710177FF02C060E04F
:1010900070E06F3F710519F014F06FEF70E0CB0155
:1010A000DF91CF910895CF93DF93EC010E94F50774
:1010B00029813A818217930714F46E8108C02B812D
:1010C0003C818217930714F060E001C06D818F812D
:1010D000861729F06F838F8D70E00E948118DF9151
:1010E000CF9108958091FF01909100020E945308D2
:1010F0000895CF93DF93EC011A860E94F5079C8731
:101100008B871CC00E9472088A858F5F8A87853111
:1011100078F0CE010E94F5079E878D872B853C8550
:101120002817390714F081E014C09C878B871A8632
:1011300068EE73E080E090E00E94591ACE010E94B0
:10114000F50729813A812550304082179307D4F260
:1011500080E0DF91CF910895FC019B017283618350
:101160008BE090E0AC01649FC001659F900D749F7F
:10117000900D11246AE070E00E94971F74836383CE
:101180001216130674F0E091FE01F0E0EE0FFF1F5F
:10119000E150FE4F0190F081E02D84A160E00E94BB
:1011A0000B1B0895EF92FF921F93CF93DF93EC01F7
:1011B000162F7A010E947908882371F080EB95E060
:1011C00060E071E00E94DE18CE010E94F507BC01CC
:1011D00080EB95E00E94B9191C8F8AA1612F0E94B3
:1011E0000B1B8BA161E00E940B1BB701882777FDC9
:1011F0008095982F0E94591A8BA160E00E940B1BCA
:10120000DF91CF911F91FF90EF90089583E160E00F
:101210000E940B1B83E160E00E940B1B8FE161E0E9
:101220000E940B1B0895CF93DF93EC01FC01E6595C
:10123000FF4F80819181A281B3810097A105B10503
:1012400021F083E161E00E940B1BFE01E259FF4F98
:1012500080819181A281B3810097A105B10521F020
:1012600083E161E00E940B1BFE01EE58FF4F80817D
:101270009181A281B3810097A105B10521F08FE191
:1012800060E00E940B1BFE01EA58FF4F80819181B4
:10129000A281B3810097A105B10531F0E881F98100
:1012A00084A161E00E940B1BDF91CF910895CF9341
:1012B000DF93EC01FC01E855FF4F80818823C1F5E5
:1012C00060E0FE01EA56FF4F8081882309F461E067
:1012D00082E10E940B1BFE01E956FF4F86E160810F
:1012E0000E940B1BFE01E856FF4F8EE160810E94B9
:1012F0000B1BFE01E756FF4F8081E881F9818823AF
:1013000029F081E0838F858D61E003C0138E858D88
:1013100060E00E940B1BCE010E94130968EE73E08F
:1013200080E090E00E94C305C655DF4F81E08883CE
:10133000DF91CF9108956F927F928F92AF92CF926B
:10134000EF920F93DF93CF93CDB7DEB73C01862F9B
:10135000F301658F468F278F00A3E1A2C2A2A3A24B
:1013600084A261E00E94EE1AF301868D61E00E9482
:10137000EE1AF301878D61E00E94EE1AF30181A15C
:1013800060E00E94EE1AF30182A161E00E94EE1A71
:10139000F30183A161E00E94EE1AF301858D61E003
:1013A0000E940B1BF301878D60E070E00E948118A2
:1013B000F301868D60E070E00E948118F30182A144
:1013C00060E00E940B1BF30183A160E00E940B1BF5
:1013D000F30184A161E00E94EE1AF30184A160E0B0
:1013E0000E940B1BF301108212821182148213825D
:1013F00080E485838FEF86831782148E108A178688
:10140000118A128A138A148A168A158A108E178AEC
:10141000128E118E81E0838FC30160E070E00E9424
:10142000AC08CF91DF910F91EF90CF90AF908F905C
:101430007F906F900895CF93DF93EC01FC01E65508
:10144000FF4F1082FC01E855FF4F1082FC01EA5665
:10145000FF4F81E08083FE01E956FF4F8083FE014C
:10146000E856FF4F8083FE01E756FF4F8083FE0161
:10147000E656FF4F808380E090E0A0E0B0E08E8BE6
:101480009F8BA88FB98F8A8F9B8FAC8FBD8F8E8FCC
:101490009F8FA8A3B9A38AA39BA3ACA3BDA380E0FD
:1014A00090E0AAE7B4E48EA39FA3A8A7B9A78FE012
:1014B00061E00E94EE1A82E161E00E94EE1A87E18B
:1014C00061E00E94EE1A86E161E00E94EE1A8DE171
:1014D00061E00E94EE1A8EE161E00E94EE1A83E163
:1014E00061E00E94EE1A83E161E00E94EE1A8FE152
:1014F00061E00E94EE1ACE010E94060984E160E0DC
:101500000E94EE1A89E160E00E94EE1A81E060E03C
:101510000E94EE1ACE0161E00E94E305DF91CF91B7
:1015200008958F92AF92CF92EF920F9381E092E065
:1015300060E14CE02EE003E0A4E0EA2EF1E1CF2EE2
:10154000EDE0AE2E73E0872E0E949B098EE292E0C2
:101550000E941B0A89ED92E00E941B0A84E893E036
:101560000E941B0A8FE294E00E941B0A0F91EF90E9
:10157000CF90AF908F900895AF92CF92DF92EF927D
:10158000FF920F931F93DF93CF930F92CDB7DEB7E8
:10159000C016D106E206F30611F480E00FC0862FD4
:1015A00069830E94551B6981009739F0862F0E943C
:1015B000551B009711F08A2DA11081E00F90CF915B
:1015C000DF911F910F91FF90EF90DF90CF90AF9040
:1015D00008952F923F924F925F926F927F928F92D7
:1015E0009F92AF92BF92CF92DF92EF92FF920F93B2
:1015F0001F93DF93CF93CDB7DEB7AC970FB6F894B8
:10160000DEBF0FBECDBF9C01FC01E655FF4F8081C0
:10161000882309F49BC3C9018E5B9F4F9E838D83F2
:10162000F901EA5AFF4FFE8FED8FC9018A569F4F8D
:101630009C878B87F901E556FF4FFE87ED8786E48F
:10164000282E312C220E331EC901865A9F4F98A393
:101650008F8FF901E956FF4FF88BEF87C901845648
:101660009F4F9A8B898BF901E65BFF4FFA83E983E1
:10167000C901825A9F4F9AA389A3F901E856FF4FE7
:10168000FC8BEB8BC90183569F4F9E8B8D8BF90191
:10169000E25BFF4FFC83EB83C9018E599F4F9CA3F4
:1016A0008BA3F901E756FF4FF88FEF8BC9018256E4
:1016B0009F4F9A8F898F02E5802E912C820E931E68
:1016C000F901EA59FF4FFEA3EDA3C90186569F4FCA
:1016D0009C8F8B8FF901E156FF4FFA87E98719EA52
:1016E000612E712C620E731EC90186599F4F98A7F7
:1016F0008FA3F901E258FF4FF887EF83B0EA4B2E32
:10170000512C420E531EC90182599F4F9AA789A797
:101710003CA72BA7ED81FE810081118122813381BD
:10172000ED8DFE8DC080D180E280F3808BA59CA5DD
:1017300064E145E1EB85FC85A0800E94BC0AED8553
:10174000FE858083F1010081118122813381EF8D3B
:10175000F8A1C080D180E280F3808BA59CA569E1CF
:101760004AE1EF85F889A0800E94BC0AE989FA89DC
:101770008083E981FA810081118122813381E9A18D
:10178000FAA1C080D180E280F3808BA59CA561E0A6
:1017900042E0EB89FC89A0800E94BC0AED89FE89A9
:1017A0008083EB81FC810081118122813381EBA157
:1017B000FCA1C080D180E280F3808BA59CA56FEF57
:1017C0004FEFEF89F88DA0800E94BC0AE98DFA8D59
:1017D0008083F4010081118122813381EDA1FEA17A
:1017E000C080D180E280F3808BA59CA56FEF4FEF86
:1017F000EB8DFC8DA0800E94BC0AE985FA85808370
:10180000F3011082ED85FE858081882309F455C09F
:10181000EFA1F8A580819181A281B381EF81F88544
:101820002081318142815381820F931FA41FB51FF4
:1018300080839183A283B383181619061A061B06A8
:10184000E4F58FE061E00E940B1B85E090E00E94D0
:10185000831A8FE060E00E940B1B81E0F30180831C
:10186000EF81F88580819181A281B381F20120818D
:10187000318142815381821B930BA40BB50BEF8105
:10188000F88580839183A283B383EB85FC852081D7
:10189000ED81FE8180819181A281B381222321F09B
:1018A0000196A11DB11D05C00197A109B109ED81E6
:1018B000FE8180839183A283B383E989FA89808141
:1018C000882309F458C00BA51CA50E571F4FE9A586
:1018D000FAA580819181A281B381F80120813181B3
:1018E00042815381820F931FA41FB51F8083918370
:1018F000A283B383181619061A061B06E4F587E1BE
:1019000061E00E940B1B85E090E00E94831A87E152
:1019100060E00E940B1B81E0F3018083F80180816D
:101920009181A281B381F201208131814281538171
:10193000821B930BA40BB50BF80180839183A283C8
:10194000B383EF85F8898081882349F0F101808194
:101950009181A281B3810196A11DB11D08C0F10141
:1019600080819181A281B3810197A109B10980830E
:101970009183A283B383ED89FE898081882309F452
:101980005CC0EBA5FCA5EE58FF4F0BA51CA50A57A4
:101990001F4F80819181A281B381F8012081318123
:1019A00042815381820F931FA41FB51F80839183AF
:1019B000A283B383181619061A061B06F4F58DE1E7
:1019C00061E00E940B1B85E090E00E94831A8DE18C
:1019D00060E00E940B1B81E0F3018083F8018081AD
:1019E0009181A281B381F2012081318142815381B1
:1019F000821B930BA40BB50BF80180839183A28308
:101A0000B383EB89FC898081882351F0E981FA81D5
:101A100080819181A281B3810196A11DB11D09C070
:101A2000E981FA8180819181A281B3810197A10925
:101A3000B10980839183A283B383E98DFA8D80817C
:101A4000882309F463C0EBA5FCA5EA58FF4F0BA55A
:101A50001CA506571F4F80819181A281B381F80197
:101A60002081318142815381820F931FA41FB51FB2
:101A700080839183A283B383181619061A061B0666
:101A80000CF044C0EBA5FCA5E080F180F701868D49
:101A900061E00E940B1B85E090E00E94831AF70131
:101AA000868D60E00E940B1B81E0F3018083F801CA
:101AB00080819181A281B381F201208131814281B3
:101AC0005381821B930BA40BB50BF8018083918388
:101AD000A283B383EF89F88D8081882351F0EB8155
:101AE000FC8180819181A281B3810196A11DB11DEC
:101AF00009C0EB81FC8180819181A281B381019732
:101B0000A109B10980839183A283B383E985FA8512
:101B10008081882309F447C0ABA5BCA5A658BF4F58
:101B20006BA57CA562577F4F8D919D910D90BC91C7
:101B3000A02DFB012081318142815381820F931FAF
:101B4000A41FB51F80839183A283B383181619063F
:101B50001A061B0644F5F20120813181428153812E
:101B6000821B930BA40BB50BFB0180839183A28393
:101B7000B383EB8DFC8D8081882349F0F401808153
:101B80009181A281B3810196A11DB11D08C0F4010C
:101B900080819181A281B3810197A109B1098083DC
:101BA0009183A283B383F3018081882309F491C0D8
:101BB000EBA5FCA5EE56FF4F208131814281538178
:101BC0000BA51CA50C551F4F2230310541055105B1
:101BD0006CF0F40160817181828193810E94781F91
:101BE000F80160837183828393830AC0F40180814A
:101BF0009181A281B381F80180839183A283B38311
:101C0000EBA5FCA5FE96608171818281938120EC19
:101C100031EE44E65CE40E94B01E5B016C01EBA572
:101C2000FCA5EC55FF4F60817181828193810E94F8
:101C3000FC1D7B018C01F2016081718182819381A5
:101C40000E94FC1D9B01AC01C801B7010E94B01E9F
:101C50009B01AC01C601B5010E94611D162F072F23
:101C6000F82EE92EA8019701652F742F832F922F4C
:101C700020E030E040E050E00E94AC1E88237CF081
:101C80009801C701432F522F692F782FCB01BA013A
:101C900020E030E040E05FE30E94F91C0EC09801B4
:101CA000C701432F522F692F782FCB01BA0120E0B3
:101CB00030E040E05FE30E94F81C0E94C91DEBA5E4
:101CC000FCA5EC55FF4F60837183828393830E9450
:101CD000C305F3018081882381F5E985FA85808138
:101CE000882309F017CD29C0F901E456FF4F808100
:101CF000882389F4F901E356FF4F8081882359F442
:101D0000F901E256FF4F8081882329F4F901E15659
:101D1000FF4F808101C081E0F901E655FF4F8083CC
:101D20008081882399F4C9010E94060968EE73E056
:101D300080E090E00E94C30509C02BA53CA5F901F5
:101D4000E556FF4F8081882331F7CECFAC960FB692
:101D5000F894DEBF0FBECDBFCF91DF911F910F91E1
:101D6000FF90EF90DF90CF90BF90AF909F908F90BB
:101D70007F906F905F904F903F902F9008951F92AB
:101D80000F920FB60F9211241F932F933F934F93EF
:101D90005F936F937F938F939F93AF93BF93EF93D3
:101DA000FF9380916F008D7F80936F00E091DB0443
:101DB000F0E0EE0FFF1FEA5DFD4F0190F081E02D96
:101DC000E655FF4F8081882361F0E091DB04F0E06D
:101DD000EE0FFF1FEA5DFD4F808191810E94E90AAD
:101DE00022C09091DB048091DA04981799F5E09174
:101DF000DB04F0E0EE0FFF1FEA5DFD4F0190F08184
:101E0000E02DE655FF4F8081882369F023C0E12F44
:101E1000F0E0EE0FFF1FEA5DFD4F808191810E948F
:101E200057091093DB0480916F00826080936F00EC
:101E3000FF91EF91BF91AF919F918F917F916F91A2
:101E40005F914F913F912F911F910F900FBE0F9077
:101E50001F9018951091DB041F5F1430C0F210E042
:101E6000D6CF2F923F924F925F926F927F928F9236
:101E70009F92AF92BF92CF92DF92EF92FF920F9319
:101E80001F93DF93CF93CDB7DEB7A2970FB6F89429
:101E9000DEBF0FBECDBF8C016D8F7E8FDC015696ED
:101EA000862F972FFC0184E101900D928150E1F77C
:101EB000F801E855FF4F1082D80156966D917D913B
:101EC0008D919C9159972091DC043091DD044091D3
:101ED000DE045091DF040E94F81C6B017C01E89441
:101EE000F7F8F801628D738D848D958D2091E00453
:101EF0003091E1044091E2045091E3040E94F81C07
:101F00004B015C01E894B7F8D8015E966D917D9124
:101F10008D919C9191972091E4043091E50440913A
:101F2000E6045091E7040E94F81C2B013C01E89460
:101F300077F8F80162A173A184A195A12091E8042A
:101F40003091E9044091EA045091EB040E94F81C9E
:101F50009B01AC015F772D8B3E8B4F8B588FD80147
:101F600096966D917D918D919C9199972091EC041D
:101F70003091ED044091EE045091EF040E94F81C62
:101F80009B01AC015F77298F3A8F4B8F5C8FD80113
:101F9000DA962D933D934D935C93DD972D893E8981
:101FA0004F89588DD6962D933D934D935C93D99739
:101FB000F80142AA53AA64AA75AA9E968D929D9290
:101FC000AD92BC92D197C2A6D3A6E4A6F5A6C7014E
:101FD000B601A70196010E94B01E6B017C01C501EC
:101FE000B401A50194010E94B01E9B01AC01C70180
:101FF000B6010E94F91C6B017C01C301B201A3016F
:1020000092010E94B01E9B01AC01C701B6010E9463
:10201000F91C2EE3C22ED12CC00ED11E262F372F35
:10202000482F592FD6012D933D934D935C931397D1
:1020300020E030E040E050E00E945D1D18166CF09A
:102040006D897E898F89988D9B01AC010E94B01E9D
:10205000F60160837183828393838EE3C82ED12C33
:10206000C00ED11ED6016D917D918D919C9120E085
:1020700030E040E050E00E945D1D18166CF0698D64
:102080007A8D8B8D9C8D9B01AC010E94B01EF60158
:102090006083718382839383BEE3CB2ED12CC00EE9
:1020A000D11ED6016D917D918D919C910E94171F3B
:1020B000F6016083718382839383A2E08A2E912C40
:1020C000800E911EF2E44F2E512C400E511E6E01D7
:1020D0000894C11CD11CC601B4014CED54E00E940F
:1020E0006003D201F60184E101900D928150E1F785
:1020F000E6E54E2E512C400E511EA8014A5E5F4F60
:102100006E010894C11CD11CC601B4010E94600379
:10211000D201F60184E101900D928150E1F7D801DE
:10212000AA5ABF4FF801EE5BFF4F8D909D90AD9086
:10213000BC9080819181A281B381881A990AAA0AF0
:10214000BB0AB7FE08C0B094A09490948094811C00
:10215000911CA11CB11CD801A65ABF4FF801EA5B23
:10216000FF4F4D905D906D907C9080819181A28118
:10217000B381481A590A6A0A7B0A4F8E58A269A28B
:102180007AA277FE0CC07094609450944094411CE5
:10219000511C611C711C4F8E58A269A27AA2D801F1
:1021A000A25ABF4FF801E65BFF4F2D913D914D9133
:1021B0005C9180819181A281B381281B390B4A0BEC
:1021C0005B0B57FF07C050954095309521953F4FC9
:1021D0004F4F5F4FD801AE59BF4FF801E25BFF4F41
:1021E0008D919D910D90BC91A02D40805180628079
:1021F000738084199509A609B709B7FF07C0B09580
:10220000A095909581959F4FAF4FBF4F7AE7272EAE
:10221000312C200E311E66E6C62ED12CC00ED11EEA
:10222000B8016E5A7F4FF601408051806280738002
:10223000498E5A8E6B8E7C8EFB014080518062806D
:102240007380C98CDA8CEB8CFC8CC418D508E6083A
:10225000F708C98EDA8EEB8EFC8EF7FE0CC0F09478
:10226000E094D094C094C11CD11CE11CF11CC98E17
:10227000DA8EEB8EFC8E498C5A8C6B8C7C8CF10147
:102280004082518262827382F801EA58FF4F808354
:102290009183A283B383F801EE58FF4F20833183EB
:1022A00042835383F801E259FF4F4F8C58A069A035
:1022B0007AA04082518262827382F801E659FF4F10
:1022C00080829182A282B382730162014814590410
:1022D0006A047B0414F475016401C216D306E40693
:1022E000F50614F469017A01C816D906EA06FB0658
:1022F00014F46C017D01F801E056FF4FC082D182D9
:10230000E282F382C114D104E104F10491F4F801F2
:10231000E855FF4F81E08083ACEDB4E03D8D2E8D1C
:10232000832F922FFC0184E101900D928150E1F7FF
:1023300094C1D80196968D909D90AD90BC90999740
:10234000C501B40120E030E040E050E00E94AC1E46
:1023500088234CF0C501B40120E030E040E05FE3A9
:102360000E94F91C08C0C501B40120E030E040E043
:102370005FE30E94F81C0E94C91D2B013C01F8017B
:10238000EE5AFF4F6083718382839383F801EA5989
:10239000FF4F80809180A280B380861A970AA80A96
:1023A000B90AB7FE08C0B094A09490948094811CA0
:1023B000911CA11CB11CF801E658FF4F808291824C
:1023C000A282B38282E9282E312C200E311E21E018
:1023D00030E040E050E0D1012D933D934D935C936C
:1023E0001397C814D904EA04FB040CF06CC0C501AF
:1023F000B401A70196010E94CC1F2D8B3E8B4F8B01
:10240000588F2D893E894F89588DD1012D933D9349
:102410004D935C93139723303105410551050CF41E
:1024200040C0B6E62B2E312C200E311EF10160810A
:102430007181828193810E94CC1F49015A01D1018F
:102440008D929D92AD92BC921397C301B2012D89DA
:102450003E894F89588D0E94CC1FC901DA01F801CD
:10246000EE5AFF4F80839183A283B383881A990A1F
:10247000AA0ABB0AB7FE08C0B094A09490948094B6
:10248000811C911CA11CB11CF801E658FF4F8082F1
:102490009182A282B382C814D904EA04FB049CF49A
:1024A0000BC0A1E04A2E512C612C712CD1014D9210
:1024B0005D926D927C921397F801E056FF4F8082F7
:1024C0009182A282B382F6E98F2E912C800E911E0A
:1024D000CC24F80166897789808D918D2091DC0468
:1024E0003091DD044091DE045091DF040E94AC1E67
:1024F000882314F0CC24C394D401CC92E7E98E2E27
:10250000912C800E911ECC24F801628D738D848DE8
:10251000958D2091E0043091E1044091E2045091C6
:10252000E3040E94AC1E882314F0CC24C394D4018D
:10253000CC9278E9872E912C800E911ECC24F80144
:10254000668D778D80A191A12091E4043091E504FE
:102550004091E6045091E7040E94AC1E882314F0D9
:10256000CC24C394D401CC9269E9862E912C800EA0
:10257000911ECC24F80162A173A184A195A12091A0
:10258000E8043091E9044091EA045091EB040E9480
:10259000AC1E882314F0CC24C394D401CC925AE905
:1025A000852E912C800E911ECC24F80166A177A176
:1025B00080A591A52091EC043091ED044091EE04AA
:1025C0005091EF040E94AC1E882314F0CC24C394D5
:1025D000D401CC92F801E056FF4F60817181828175
:1025E000938122E030E040E050E00E94CC1F509503
:1025F0004095309521953F4F4F4F5F4FF801E2587E
:10260000FF4F2083318342835383F801EE57FF4FFE
:102610002083318342835383F801EA57FF4F20839D
:10262000318342835383F801E657FF4F2083318380
:1026300042835383F801E257FF4F20833183428363
:102640005383ACEDB4E03D8D2E8D832F922FFC0192
:1026500084E101900D928150E1F7A2960FB6F894B3
:10266000DEBF0FBECDBFCF91DF911F910F91FF90C5
:10267000EF90DF90CF90BF90AF909F908F907F9022
:102680006F905F904F903F902F9008951F93DF932E
:10269000CF93CDB7DEB706C061E070E080E090E098
:1026A0000E94591A8091DB04882329F48091DA046E
:1026B000833059F4F1CF2091DA048091DB0430E0CB
:1026C00090E001972817390739F31091DA041F5F5A
:1026D000143008F010E0E12FF0E0EE0FFF1FEA5D8C
:1026E000FD4F80819181BE016A5F7F4F0E94310F53
:1026F0001093DA04CF91DF911F9108952F923F92AA
:102700004F925F926F927F928F929F92AF92BF9201
:10271000CF92DF92EF92FF920F931F93DF93CF93AD
:10272000CDB7DEB7E9970FB6F894DEBF0FBECDBFC9
:10273000FC01AB0180818F3209F4B0C382E795E0E0
:10274000BF010E94A00680917205909173059C01C3
:10275000237030702115310589F4009779F02091AC
:1027600073013091740137FD09C0309375052093D2
:1027700074058160909373058093720500917205D2
:102780001091730500FFB4C2809174059091750596
:102790009AA789A790937401809373018091EC04A8
:1027A0009091ED04A091EE04B091EF048FA798AB47
:1027B000A9ABBAAB9091E8049BABA091E904ACAB98
:1027C000B091EA04BDAB2091EB042EAB8091E40400
:1027D0008BA79091E5049CA7A091E604ADA7B091CA
:1027E000E704BEA7B090E004A090E1049090E2045A
:1027F0008090E304E090DC04F090DD04D090DE04EF
:10280000C090DF04209175012FABC80188709070D3
:10281000222371F1009741F0E0907C05F0907D0556
:10282000D0907E05C0907F0504FF08C0B090800561
:10283000A0908105909082058090830505FD05C0DC
:102840007BA45CA44DA43EA408C070908405509065
:102850008505409086053090870515FF69C060901A
:1028600088052090890520918A0530918B0564C0E8
:102870000097A1F0C6014E2D5F2D692F782FCB0157
:10288000BA0120917C0530917D0540917E055091E3
:102890007F050E94F91C7B01D82EC92E04FF16C0AB
:1028A0009501C401432F5A2D692F782DCB01BA0110
:1028B00020918005309181054091820550918305DA
:1028C0000E94F91CB62EA72E982E892E05FD05C054
:1028D0007BA45CA44DA43EA415C03BA52CA54DA58E
:1028E0005EA5632F722FCA01209184053091850562
:1028F00040918605509187050E94F91C762E572E2F
:10290000482E392E15FF14C02BA93CA94DA95EA94C
:10291000B901CA01209188053091890540918A0545
:1029200050918B050E94F91C662E272E9C0104C035
:102930006BA82CA82DA93EA911FF0CC0809194056D
:1029400090919505A0919605B09197058FA798ABAA
:10295000A9ABBAABA9A5BAA5109749F0A130B105AA
:1029600009F44DC0AC31B10509F0E2C084C080E08B
:1029700090E8ABE3B5E4898B9A8BAB8BBC8B862D4F
:10298000922DA22FB32F8D879E87AF87B88B872D6F
:10299000952DA42DB32D89879A87AB87BC87A50178
:1029A0009401852F9A2DA32FB82D8D839E83AF83FD
:1029B000B88796018E2D9F2DA32FBC2D89839A83D6
:1029C000AB83BC838DB79EB744970FB6F8949EBF78
:1029D0000FBE8DBFADB7BEB71196FE01319684E133
:1029E00001900D928150E1F70E944613ADB7BEB73A
:1029F00054960FB6F894BEBF0FBEADBF4FC28FA5A1
:102A000098A9A9A9BAA9898B9A8BAB8BBC8B862D67
:102A1000922DA22FB32F8D879E87AF87B88B872DDE
:102A2000952DA42DB32D89879A87AB87BC87A501E7
:102A30009401852F9A2DA32FB82D8D839E83AF836C
:102A4000B88796018E2D9F2DA32FBC2D89839A8345
:102A5000AB83BC83ADB7BEB754970FB6F894BEBF77
:102A60000FBEADBF1196FE01319684E101900D922B
:102A70008150E1F752C09FA9992329F0EBA8FCA847
:102A80001DA90EA904C0EE24FF2410E000E05BA500
:102A90004CA53DA52EA5652F742F832F922F20E0E6
:102AA00030E040E050E00E945D1D882329F420E0E2
:102AB00030E84BE355E404C020E030E048E452E461
:102AC00080E090E0A0E0B0E08D8B9E8BAF8BB88F64
:102AD000898F9A8FAB8FBC8F8D8F9E8FAF8FB8A34E
:102AE0002DA33EA34FA358A798018E2D9F2DA32F52
:102AF000B02F89A39AA3ABA3BCA3ADB7BEB754971D
:102B00000FB6F894BEBF0FBEADBF1196FE0175960D
:102B100084E101900D928150E1F70E9446138DB738
:102B20009EB744960FB6F8949EBF0FBE8DBFB6C138
:102B30009091DB048091DA04981709F09DC1E0912F
:102B4000DB04F0E0EE0FFF1FEA5DFD4F0190F08126
:102B5000E02DE655FF4F8081882309F08DC18091DB
:102B600074059091750584309105A1F0843191052B
:102B700059F18531910509F442C08A35910509F46E
:102B80005BC08B35910509F45BC08C35910509F06C
:102B90009AC059C0609178057091790580917A0545
:102BA00090917B0520E030E040E05FE30E94F91C5B
:102BB0000E94C91D9B01AC01B901882777FD809552
:102BC000982F0E94591A94C0809126029091270252
:102BD00060E00E94E305809128029091290260E064
:102BE0000E94E30580912A0290912B0260E00E94EE
:102BF000E30580912C0290912D0260E01AC0809133
:102C000026029091270261E00E94E305809128024C
:102C10009091290261E00E94E30580912A0290913F
:102C20002B0261E00E94E30580912C0290912D021D
:102C300061E00E94E3055CC081E08093750158C0AB
:102C40001092750155C0A6018E2D9F2DA52FBC2D6C
:102C50008093DC049093DD04A093DE04B093DF0442
:102C6000B501A401872F9A2DA52FB82D8093E004DC
:102C70009093E104A093E204B093E304872D952D93
:102C8000A42DB32D8093E4049093E504A093E6046F
:102C9000B093E704862D922DA22FB32F8093E804E2
:102CA0009093E904A093EA04B093EB048FA598A94C
:102CB000A9A9BAA98093EC049093ED04A093EE0423
:102CC000B093EF0415C080EB95E064E071E00E94E2
:102CD000DE188091740590917505AC01662757FD4B
:102CE0006095762F80EB95E02AE030E00E94DB19BA
:102CF0008091720581FFD2C09091DB048091DA044B
:102D0000981709F0C4C0E091DB04F0E0EE0FFF1F5C
:102D1000EA5DFD4F0190F081E02DE655FF4F808187
:102D2000882309F0B4C080917605909177050097CB
:102D300009F4B4C08836910599F08936910581F17E
:102D40008A3691050CF482C08C3691050CF4A6C02D
:102D50008E379105E1F18F37910509F077C055C0A5
:102D6000809172059091730592FF98C0E091FE01E9
:102D7000F0E0EE0FFF1FE150FE4F008111816091E6
:102D800098057091990580919A0590919B050E94F4
:102D9000C91D9B01AC01C801B9010E94AC087EC0ED
:102DA00080EB95E06BE071E00E94DE18E091FE019F
:102DB000F0E0EE0FFF1FE150FE4F808191810E94F5
:102DC000F507BC0180EB95E00E94B91967C0E0915E
:102DD000FE01F0E0EE0FFF1FE150FE4F0081118178
:102DE000609178057091790580917A0590917B05C5
:102DF00020E030E040E05FE30E94F91C0E94C91D22
:102E00009B01AC01C80161E01DC0E091FE01F0E052
:102E1000EE0FFF1FE150FE4F008111816091780598
:102E20007091790580917A0590917B0520E030E0E2
:102E300040E05FE30E94F91C0E94C91D9B01AC01A8
:102E4000C80160E0A9010E94D20828C080EB95E08B
:102E50006EE071E00E94DE18809176059091770512
:102E6000AC01662757FD6095762F80EB95E02AE050
:102E700030E00E94DB1912C061E070E080E090E079
:102E800028AF39AF0E94591A28AD39AD51CE61E053
:102E900070E080E090E00E94591A2ECFE9960FB6BC
:102EA000F894DEBF0FBECDBFCF91DF911F910F9180
:102EB000FF90EF90DF90CF90BF90AF909F908F905A
:102EC0007F906F905F904F903F902F90089580EB90
:102ED00095E00E94E41A882311F180EB95E00E94AE
:102EE000DF1A809372018D3019F48AE080937201A9
:102EF0008091720180329CF08B3319F491E09093B1
:102F0000710590917105992351F490917005E92F05
:102F1000F0E0E051FB4F80839F5F909370058091BC
:102F2000700587FF04C010927005109271056091C2
:102F30007005662351F1809172018A3031F570E09D
:102F4000FB01E051FB4F108280EF94E00E947E1362
:102F5000109270051092710580917E01882379F09E
:102F600080EB95E065E171E00E94DE1880EB95E072
:102F70006EE771E00E94001910927E01089580EBC7
:102F800095E069E171E00E94001908950E947208BD
:102F90000E94671708950F931F93CF93DF93CFE697
:102FA000D0E088818D7F88830E94210510927E0168
:102FB0001092FE0181E092E0909300028093FF0165
:102FC0001092DA041092DB042EE232E030932702F2
:102FD0002093260229ED32E0309329022093280223
:102FE00024E833E030932B0220932A022FE234E0CE
:102FF00030932D0220932C0290932F0280932E0267
:103000009093DA028093D90290938503809384038E
:103010009093300480932F041092700510927105E4
:1030200080E090E0A0E0B0E08093DC049093DD04C9
:10303000A093DE04B093DF048093E0049093E10456
:10304000A093E204B093E3048093E4049093E50436
:10305000A093E604B093E7048093E8049093E90416
:10306000A093EA04B093EB0480E090E0AAE7B4E414
:103070008093EC049093ED04A093EE04B093EF04DE
:1030800000EB15E0C80140E05BE460E070E00E9406
:10309000E91AC8016CE171E00E94001968EE73E062
:1030A00080E090E00E94C305888182608883DF9180
:1030B000CF911F910F9108950E94901A0E94CB17F3
:1030C0000E94C617FDCF909176019295990F990FA6
:1030D000907C8770892B80937C0080917A0080643B
:1030E00080937A0080917A0086FDFCCF2091780051
:1030F00030917900932F80E030E0282B392BC901E3
:1031000008951F93CF93DF93182FEB0161E00E9486
:10311000EE1AE12FF0E0E553FF4F8491833051F434
:1031200080918000806880938000D0938900C09354
:10313000880038C0843051F4809180008062809390
:103140008000D0938B00C0938A002CC0813029F47A
:1031500084B5806884BDC7BD25C0823029F484B59C
:10316000806284BDC8BD1EC0863041F48091B0002D
:1031700080688093B000C093B30014C0873041F4DE
:103180008091B00080628093B000C093B4000AC008
:10319000C038D1051CF4812F60E002C0812F61E0AE
:1031A0000E940B1BDF91CF911F910895DC01ED91DF
:1031B000FC910190F081E02D099508950F931F93E4
:1031C000CF93DF93EC018B0105C00F5F1F4FCE0142
:1031D0000E94D618F80160816623B9F7DF91CF917C
:1031E0001F910F910895CF93DF93EC016DE00E9442
:1031F000D618CE016AE00E94D618DF91CF910895CB
:10320000CF93DF93EC010E94DE18CE010E94F318E9
:10321000DF91CF9108952F923F924F925F926F92DC
:103220007F928F929F92AF92BF92CF92DF92EF9256
:10323000FF920F931F93DF93CF93CDB7DEB7A29783
:103240000FB6F894DEBF0FBECDBF2C015A016B0143
:10325000411551056105710521F460E30E94D618FE
:103260004CC0EE24FF248701622E77248824992401
:103270001E010894211C311CC1018E0D9F1D9AA3B3
:1032800089A3C601B501A40193010E94AA1FE9A167
:10329000FAA160830894E11CF11C011D111DC601F7
:1032A000B501A40193010E94AA1FA22EB32EC42E21
:1032B000D52EA114B104C104D104F1F6D801C7017F
:1032C0000197A109B109280E391E12C00894E1081E
:1032D000F10801091109F10160816A3010F4605DA3
:1032E00001C0695CC2010E94D61808942108310807
:1032F000E114F1040105110549F7A2960FB6F894FF
:10330000DEBF0FBECDBFCF91DF911F910F91FF9018
:10331000EF90DF90CF90BF90AF909F908F907F9075
:103320006F905F904F903F902F900895EF92FF9293
:103330000F931F93CF93DF93EC017A018B0177FFFB
:103340000BC06DE20E94D61810950095F094E094A1
:10335000E11CF11C011D111DCE01B801A7012AE0DD
:103360000E940B19DF91CF911F910F91FF90EF9069
:103370000895CF93DF93EC01CB01AC01662757FD95
:103380006095762FCE010E949619CE010E94F31807
:10339000DF91CF9108952115310521F4642F0E940A
:1033A000D61808952A30310519F40E949619089507
:1033B0000E940B190895CF93DF93EC010E94CB1963
:1033C000CE010E94F318DF91CF9108951F920F92C2
:1033D0000FB60F9211242F938F939F93AF93BF93A8
:1033E0008091A4059091A505A091A605B091A7058F
:1033F0000196A11DB11D8093A4059093A505A093EE
:10340000A605B093A7058091A8059091A905A09164
:10341000AA05B091AB058050904CAF4FBF4F809341
:10342000A8059093A905A093AA05B093AB0527C062
:103430008091A8059091A905A091AA05B091AB052E
:1034400080589E43A040B0408093A8059093A90562
:10345000A093AA05B093AB058091AC059091AD0502
:10346000A091AE05B091AF050196A11DB11D80934D
:10347000AC059093AD05A093AE05B093AF058091D8
:10348000A8059091A905A091AA05B091AB05813836
:103490002EE3920720E0A20720E0B20748F6BF9192
:1034A000AF919F918F912F910F900FBE0F901F9012
:1034B0001895EF92FF920F931F937B018C018FB7AA
:1034C000F8942091AC053091AD054091AE05509136
:1034D000AF058FBF6FB7F8948091AC059091AD05A3
:1034E000A091AE05B091AF056FBF821B930BA40BEB
:1034F000B50BE816F9060A071B0760F71F910F9135
:10350000FF90EF900895019751F0880F991F880F51
:10351000991F02972FB7F8940197F1F72FBF0895DD
:10352000789484B5826084BD84B5816084BD85B59E
:10353000826085BD85B5816085BDEEE6F0E0808165
:1035400081608083E1E8F0E0808182608083808117
:1035500081608083E0E8F0E0808181608083E1EB3E
:10356000F0E0808184608083E0EBF0E08081816026
:103570008083EAE7F0E080818460808380818260DC
:1035800080838081816080838081806880831092C5
:10359000C10008958BE791E09093B1058093B00549
:1035A0001092B2059093B4058093B30581E08093A7
:1035B000B5050895FC0182810E94281C0895FC0134
:1035C00082810E944F1C0895FC0182810E94381C58
:1035D0000895FC0182810E94A01B0895282F30E0ED
:1035E000C90185559F4FFC019491F901E557FF4FA3
:1035F000E491EE2379F0F0E0E458FF4FE491F0E03D
:10360000662329F4808190958923808308958081A1
:10361000892B80830895482F50E0CA0185539F4F1E
:10362000FC0194919A0125553F4FF9012491FA012B
:10363000E557FF4FE491EE23B9F1992331F1913031
:1036400019F494B59F7704C0923021F494B59F7D0E
:1036500094BD1BC0933021F4909180009F7705C0EA
:10366000943031F4909180009F7D909380000DC044
:10367000963021F49091B0009F7705C0973029F4DF
:103680009091B0009F7D9093B000F0E0EF57FF4F16
:10369000E491F0E0662329F48081209582238083E1
:1036A00008958081822B80830895282F30E0C901FE
:1036B00085539F4FFC019491A90145555F4FFA0135
:1036C0004491F901E557FF4FE491EE2319F420E00E
:1036D00030E034C0992331F1913019F494B59F77DB
:1036E00004C0923021F494B59F7D94BD1BC09330EB
:1036F00021F4909180009F7705C0943031F490912F
:1037000080009F7D909380000DC0963021F49091B1
:10371000B0009F7705C0973029F49091B0009F7D4D
:103720009093B000F0E0EA57FF4FE491F0E0808121
:1037300020E030E0842311F021E030E0C901089559
:10374000EF92FF920F931F937A018B018823F1F57B
:10375000CB01BA0122E030E040E050E00E94CC1FF3
:10376000CA01B901605C7D4B804F9F4FA801970152
:103770000E94CC1FC901DA019C01AD0121503040EB
:1037800040405040232F342F452F552747FD5A9551
:103790002093C50081508093C4001092C000109205
:1037A000C1001092C2008091C10080618093C1006D
:1037B0008091C10088608093C1008091C1008068C1
:1037C0008093C10086E08093C2003DC0CB01BA0166
:1037D00022E030E040E050E00E94CC1FCA01B90175
:1037E000605C7D4B804F9F4FA80197010E94CC1FCA
:1037F000C901DA019C01AD012150304040405040E8
:10380000232F342F452F552747FD5A952093CD0060
:1038100081508093CC001092C8001092C900109281
:10382000CA008091C90080618093C9008091C9005D
:1038300088608093C9008091C90080688093C90026
:1038400086E08093CA001F910F91FF90EF9008953A
:10385000882339F48091C00085FFFCCF6093C600B7
:1038600008958091C80085FFFCCF6093CE00089535
:10387000282F30E0220F331FF901EA54FA4F8081DC
:10388000918180589F4F26543A4FF9012081318110
:10389000821B930B60E870E00E94971F0895CF93FE
:1038A000DF93A82FB0E09D01220F331FF901E654EA
:1038B000FA4F808191812A543A4FE9012881398158
:1038C0002817390719F42FEF3FEF12C0B695BA2F1A
:1038D000AA27B795A795A80FB91FA254BA4F2C9144
:1038E000019660E870E00E94971F9183808330E02A
:1038F000C901DF91CF9108951F920F920FB60F92D9
:1039000011242F933F934F935F936F937F938F93E4
:103910009F93AF93BF93EF93FF934091C600209185
:10392000B6053091B705C901019660E870E00E94C4
:10393000971FBC018091BA059091BB056817790764
:1039400041F022543A4FF90140837093B7056093D8
:10395000B605FF91EF91BF91AF919F918F917F91AC
:103960006F915F914F913F912F910F900FBE0F90EC
:103970001F9018951F920F920FB60F9211242F933C
:103980003F934F935F936F937F938F939F93AF93E7
:10399000BF93EF93FF934091CE002091B8053091F3
:1039A000B905C901019660E870E00E94971FBC014B
:1039B0008091BC059091BD056817790741F0225CA4
:1039C000394FF90140837093B9056093B805FF91B1
:1039D000EF91BF91AF919F918F917F916F915F9187
:1039E0004F913F912F910F900FBE0F901F90189500
:1039F0005058BB27AA270ED075C166D130F06BD1C5
:103A000020F031F49F3F11F41EF45BC10EF4E095F9
:103A1000E7FB51C1E92F77D180F3BA17620773072B
:103A20008407950718F071F49EF58FC10EF4E095A8
:103A30000B2EBA2FA02D0B01B90190010C01CA0168
:103A4000A0011124FF27591B99F0593F50F4503E13
:103A500068F11A16F040A22F232F342F4427585F05
:103A6000F3CF469537952795A795F0405395C9F71D
:103A70007EF41F16BA0B620B730B840BBAF09150D5
:103A8000A1F0FF0FBB1F661F771F881FC2F70EC074
:103A9000BA0F621F731F841F48F487957795679547
:103AA000B795F7959E3F08F0B3CF9395880F08F030
:103AB0009927EE0F979587950895D9D008F481E05E
:103AC00008950CD00FC107D140F0FED030F021F4A2
:103AD0005F3F19F0F0C0511139C1F3C014D198F310
:103AE0009923C9F35523B1F3951B550BBB27AA277F
:103AF00062177307840738F09F5F5F4F220F331FF1
:103B0000441FAA1FA9F333D00E2E3AF0E0E830D0BC
:103B100091505040E695001CCAF729D0FE2F27D0BF
:103B2000660F771F881FBB1F261737074807AB078D
:103B3000B0E809F0BB0B802DBF01FF2793585F4F02
:103B40002AF09E3F510568F0B6C000C15F3FECF31C
:103B5000983EDCF3869577956795B795F7959F5FC7
:103B6000C9F7880F911D9695879597F90895E1E01B
:103B7000660F771F881FBB1F621773078407BA077A
:103B800020F0621B730B840BBA0BEE1F88F7E095D5
:103B9000089504D06894B111D9C00895BCD088F0BC
:103BA0009F5790F0B92F9927B751A0F0D1F0660F29
:103BB000771F881F991F1AF0BA95C9F712C0B13044
:103BC00081F0C3D0B1E00895C0C0672F782F882757
:103BD000B85F39F0B93FCCF3869577956795B39583
:103BE000D9F73EF490958095709561957F4F8F4FF2
:103BF0009F4F0895E89409C097FB3EF490958095F7
:103C0000709561957F4F8F4F9F4F9923A9F0F92FA2
:103C100096E9BB279395F695879577956795B79520
:103C2000F111F8CFFAF4BB0F11F460FF1BC06F5F06
:103C30007F4F8F4F9F4F16C0882311F096E911C018
:103C4000772321F09EE8872F762F05C0662371F039
:103C500096E8862F70E060E02AF09A95660F771F4D
:103C6000881FDAF7880F9695879597F90895990F29
:103C70000008550FAA0BE0E8FEEF16161706E80736
:103C8000F907C0F012161306E407F50798F0621B57
:103C9000730B840B950B39F40A2661F0232B242B2C
:103CA000252B21F408950A2609F4A140A6958FEF4B
:103CB000811D811D089597F99F6780E870E060E09D
:103CC00008959FEF80EC089500240A9416161706B5
:103CD00018060906089500240A94121613061406FD
:103CE00005060895092E0394000C11F4882352F060
:103CF000BB0F40F4BF2B11F460FF04C06F5F7F4F18
:103D00008F4F9F4F089557FD9058440F551F59F0FE
:103D10005F3F71F04795880F97FB991F61F09F3FB8
:103D200079F087950895121613061406551FF2CFE1
:103D30004695F1DF08C0161617061806991FF1CF31
:103D400086957105610508940895E894BB27662758
:103D50007727CB0197F908958ADF08F48FEF08954C
:103D60000BD0C0CFB1DF28F0B6DF18F0952309F0F3
:103D7000A2CFA7CF1124EACFC6DFA0F3959FD1F33E
:103D8000950F50E0551F629FF001729FBB27F00D09
:103D9000B11D639FAA27F00DB11DAA1F649F66275E
:103DA000B00DA11D661F829F2227B00DA11D621FAD
:103DB000739FB00DA11D621F839FA00D611D221F67
:103DC000749F3327A00D611D231F849F600D211D4B
:103DD000822F762F6A2F11249F5750408AF0E1F0EE
:103DE00088234AF0EE0FFF1FBB1F661F771F881F37
:103DF00091505040A9F79E3F510570F05CCFA6CF7F
:103E00005F3FECF3983EDCF3869577956795B79521
:103E1000F795E7959F5FC1F7FE2B880F911D96954B
:103E2000879597F9089511F40EF44BCF4AC073DFCC
:103E3000D0F39923D9F3CEF39F57550B87FF51D079
:103E400056959795B0E020F4660F771F881FBB1F2B
:103E50001F930F9300249001A0018001F001A0E8BE
:103E60000E0F1F1F0A1E511D601B710B8009B50B21
:103E700048F4600F711F801DB51F0E1B1F0B0A0A2F
:103E8000510907C02E0F3F1F4A1F0E0F1F1F0A1E8A
:103E9000511D660F771F881FBB1FA695F795E795E5
:103EA000F8F60617170708065B07211D311D411D8F
:103EB0000F911F91B901842F9158880F969587957E
:103EC00008959F3F49F0915028F48695779567951E
:103ED000B7959F5F80389F4F880F9695879597F984
:103EE000089591505040660F771F881FD2F70895AC
:103EF000629FD001739FF001829FE00DF11D649FCE
:103F0000E00DF11D929FF00D839FF00D749FF00D59
:103F1000659FF00D9927729FB00DE11DF91F639FFA
:103F2000B00DE11DF91FBD01CF011124089597FBCC
:103F3000092E07260AD077FD04D049D006D00020EC
:103F40001AF4709561957F4F0895F6F790958195D5
:103F50009F4F0895A1E21A2EAA1BBB1BFD010DC0A5
:103F6000AA1FBB1FEE1FFF1FA217B307E407F50729
:103F700020F0A21BB30BE40BF50B661F771F881F05
:103F8000991F1A9469F760957095809590959B019B
:103F9000AC01BD01CF01089597FB092E05260ED077
:103FA00057FD04D0D7DF0AD0001C38F45095409557
:103FB000309521953F4F4F4F5F4F0895F6F79095FD
:103FC0008095709561957F4F8F4F9F4F0895AA1BE5
:103FD000BB1B51E107C0AA1FBB1FA617B70710F0F4
:103FE000A61BB70B881F991F5A95A9F78095909526
:103FF000BC01CD010895EE0FFF1F0590F491E02D57
:104000000994911106C0803219F089508550D0F77B
:1040100008959927882708952F923F924F925F9293
:104020006F927F928F929F92AF92BF92CF92DF92C8
:10403000EF92FF920F931F93CF93DF93CDB7DEB72D
:10404000CA1BDB0B0FB6F894DEBF0FBECDBF0994C1
:104050002A88398848885F846E847D848C849B8418
:10406000AA84B984C884DF80EE80FD800C811B8126
:10407000AA81B981CE0FD11D0FB6F894DEBF0FBE55
:0A408000CDBFED010895F894FFCFC5
:10408A00453A20006875683F204700543A00487551
:10409A00683F204D006F6B20006F6B007374617274
:1040AA007400010049033600FF006B00D100A00034
:1040BA00B800D500A6000A0199003F018E007401DC
:1040CA008400A9017C00DE01740013026C0048021E
:1040DA0065007D025D00B2025600E7024E001C0335
:1040EA00460051033D0086033200BB032200F00361
:0E40FA0003003FFFFF010100000000DA1A0082
:00000001FF
